{
  "transactions": [
    {
      "hash": "0xed7864eeab054c0722cd16050357fcee1a6dbb123899726d022459ba9867e765",
      "transactionType": "CALL",
      "contractName": null,
      "contractAddress": "0xd7bb8202b63b399e0574b9c76d853afc4c49e392",
      "function": "sayGM(string)",
      "arguments": [
        "\"hello-world\""
      ],
      "transaction": {
        "from": "0xfbdd8f71c96dd971fe3a80fd3a75944bc8c817f8",
        "to": "0xd7bb8202b63b399e0574b9c76d853afc4c49e392",
        "gas": "0x2f543",
        "value": "0x0",
        "input": "0x8cb092820000000000000000000000000000000000000000000000000000000000000020000000000000000000000000000000000000000000000000000000000000001168656c6c6f2d776f726c642d61626f6261000000000000000000000000000000",
        "nonce": "0x19",
        "chainId": "0x2105"
      },
      "additionalContracts": [],
      "isFixedGasLimit": false
    }
  ],
  "receipts": [
    {
      "status": "0x1",
      "cumulativeGasUsed": "0xe85128",
      "logs": [
        {
          "address": "0xd85ee50da419cc5af83a1e70a91d5c630b8c650a",
          "topics": [
            "0x04344ed7a67fec80c444d56ee1cee242f3f75b91fecc8dbce8890069c82eb48e",
            "0x0000000000000000000000000000000000000000000000000000000000019268"
          ],
          "data": "0x",
          "blockHash": "0xa7ff9a17ea9d9ae2c0ec0147bf02285c006d403fd6391172e6d7ab8e7ce5cc7d",
          "blockNumber": "0x11a8b96",
          "transactionHash": "0xed7864eeab054c0722cd16050357fcee1a6dbb123899726d022459ba9867e765",
          "transactionIndex": "0x69",
          "logIndex": "0x117",
          "removed": false
        }
      ],
      "logsBloom": "0x00000000000000000000000000000000002000000000000000000000000000002000000000000000000000000000000000000000000100000000000000000000000000000000000000000000000000000000000000000000000000000000000020000000000000000000000000000000000000000000000000000000000000000000000000000000000000000000000000000000000000000000000000000000000000000000000000000000000000000000000000000000000000000000000000000080000000000000000000000000000000000010000000002000000000000000000000000000000008004000000000000000000000000000000000000000",
      "type": "0x2",
      "transactionHash": "0xed7864eeab054c0722cd16050357fcee1a6dbb123899726d022459ba9867e765",
      "transactionIndex": "0x69",
      "blockHash": "0xa7ff9a17ea9d9ae2c0ec0147bf02285c006d403fd6391172e6d7ab8e7ce5cc7d",
      "blockNumber": "0x11a8b96",
      "gasUsed": "0x205ca",
      "effectiveGasPrice": "0xa910a2",
      "from": "0xfbdd8f71c96dd971fe3a80fd3a75944bc8c817f8",
      "to": "0xd7bb8202b63b399e0574b9c76d853afc4c49e392",
      "contractAddress": null,
      "l1BaseFeeScalar": "0x8dd",
      "l1BlobBaseFee": "0x1",
      "l1BlobBaseFeeScalar": "0x101c12",
      "l1Fee": "0x3910ec294",
      "l1GasPrice": "0xfb80d988",
      "l1GasUsed": "0x640"
    }
  ],
  "libraries": [],
  "pending": [],
  "returns": {},
  "timestamp": 1723823125,
  "chain": 8453,
  "commit": "fe59bdc"
}