{
  "transactions": [
    {
      "hash": "0x84b5699a10d6b50acc37d755e29edde6e175d52c5dd18f6010b2965a9684d866",
      "transactionType": "CALL",
      "contractName": null,
      "contractAddress": "0x07947e7b378fe512d0f8cb0bb4d5f80468496f60",
      "function": "sayGM(string,uint16)",
      "arguments": [
        "\"hello-world\"",
        "1000"
      ],
      "transaction": {
        "from": "0xfbdd8f71c96dd971fe3a80fd3a75944bc8c817f8",
        "to": "0x07947e7b378fe512d0f8cb0bb4d5f80468496f60",
        "gas": "0x2cc14",
        "value": "0x0",
        "input": "0xd39ce159000000000000000000000000000000000000000000000000000000000000004000000000000000000000000000000000000000000000000000000000000003e8000000000000000000000000000000000000000000000000000000000000000b68656c6c6f2d776f726c64000000000000000000000000000000000000000000",
        "nonce": "0x1f",
        "chainId": "0x2105"
      },
      "additionalContracts": [],
      "isFixedGasLimit": false
    }
  ],
  "receipts": [
    {
      "status": "0x1",
      "cumulativeGasUsed": "0xa9d675",
      "logs": [
        {
          "address": "0xd85ee50da419cc5af83a1e70a91d5c630b8c650a",
          "topics": [
            "0x04344ed7a67fec80c444d56ee1cee242f3f75b91fecc8dbce8890069c82eb48e",
            "0x0000000000000000000000000000000000000000000000000000000000019693"
          ],
          "data": "0x",
          "blockHash": "0x3a3204ff28d00c4c379def7c70a116ceef51ad649db68b671b019e921de0e199",
          "blockNumber": "0x11b096c",
          "transactionHash": "0x84b5699a10d6b50acc37d755e29edde6e175d52c5dd18f6010b2965a9684d866",
          "transactionIndex": "0x41",
          "logIndex": "0xda",
          "removed": false
        }
      ],
      "logsBloom": "0x00000000000000000000000000000000002000000000000000000000000000002000000000000000000000000000000000000000001101000000000000000000000000000200000000000000000000000000000000000000000000000000000020000000000000000000000000000000000000000000000000000000000000000000000000000000000000000000000000000000000000000000000000000000000000000000000000000000000000000000000000000000000000000000000000000000000000000000000000000000000000000000000000002000000000000000000000000000000000004000000000000000000000000000000000000000",
      "type": "0x2",
      "transactionHash": "0x84b5699a10d6b50acc37d755e29edde6e175d52c5dd18f6010b2965a9684d866",
      "transactionIndex": "0x41",
      "blockHash": "0x3a3204ff28d00c4c379def7c70a116ceef51ad649db68b671b019e921de0e199",
      "blockNumber": "0x11b096c",
      "gasUsed": "0x2066f",
      "effectiveGasPrice": "0x2bdc98",
      "from": "0xfbdd8f71c96dd971fe3a80fd3a75944bc8c817f8",
      "to": "0x07947e7b378fe512d0f8cb0bb4d5f80468496f60",
      "contractAddress": null,
      "l1BaseFeeScalar": "0x8dd",
      "l1BlobBaseFee": "0x1",
      "l1BlobBaseFeeScalar": "0x101c12",
      "l1Fee": "0x127535074",
      "l1GasPrice": "0x51591068",
      "l1GasUsed": "0x640"
    }
  ],
  "libraries": [],
  "pending": [],
  "returns": {},
  "timestamp": 1723887554,
  "chain": 8453,
  "commit": "fe59bdc"
}